:100000000C9456000C9460000C9462000C946000F8
:100010000C9460000C9460000C9460000C946000E0
:100020000C9460000C9460000C9460000C946000D0
:100030000C9460000C9460000C9460000C946000C0
:100040000C9460000C9460000C9460000C946000B0
:100050000C9460000C9460000C9460000C946000A0
:100060000C9460000C9460000C9460000C94600090
:100070000C9460000C9460000C9460000C94600080
:100080000C9460000C9460000C9460000C94600070
:100090000C9460000C9460000C9460000C94600060
:1000A0000C9460000C9460000C94600011241FBE3E
:1000B000CFEFDAE0DEBFCDBF0E948A000C948C0047
:1000C0000C9400001F920F920FB60F9211248F9381
:1000D00080E381BB82E381BB81E381BB8F910F9081
:1000E0000FBE0F901F90189583E380BB81B381638F
:1000F00081BB17B8F894E9E6F0E080818B608083DB
:100100008DB383608DBB789422E133E340E050E00F
:0C0110000000FECF0E947400F894FFCFA6
:00000001FF
