:100000000C9456000C9462000C946B000C946000ED
:100010000C9460000C9460000C9460000C946000E0
:100020000C9460000C9460000C9460000C946000D0
:100030000C9460000C9460000C9460000C946000C0
:100040000C9460000C9460000C9460000C946000B0
:100050000C9460000C9460000C9460000C946000A0
:100060000C9460000C9460000C9460000C94600090
:100070000C9460000C9460000C9460000C94600080
:100080000C9460000C9460000C9460000C94600070
:100090000C9460000C9460000C9460000C94600060
:1000A0000C9460000C9460000C94600011241FBE3E
:1000B000CFEFDAE0DEBFCDBF0E9493000C94950035
:1000C0000C9400005FB746B1403811F421BB00002A
:1000D00031BB5FBF18951F920F920FB60F9211247C
:1000E0008F9380E381BB82E381BB81E381BB8F91EE
:1000F0000F900FBE0F901F90189583E380BB81B3C4
:10010000816381BB17B8F894E9E6F0E080818B60E9
:1001100080838DB383608DBB789422E133E340E02C
:0E01200050E00000FECF0E947D00F894FFCF5B
:00000001FF
